{
  "contractName": "Staking",
  "abi": [
    {
      "inputs": [
        {
          "internalType": "contract AlyraToken",
          "name": "_aya",
          "type": "address"
        }
      ],
      "stateMutability": "nonpayable",
      "type": "constructor"
    },
    {
      "anonymous": false,
      "inputs": [
        {
          "indexed": true,
          "internalType": "address",
          "name": "previousOwner",
          "type": "address"
        },
        {
          "indexed": true,
          "internalType": "address",
          "name": "newOwner",
          "type": "address"
        }
      ],
      "name": "OwnershipTransferred",
      "type": "event"
    },
    {
      "anonymous": false,
      "inputs": [
        {
          "indexed": false,
          "internalType": "address",
          "name": "userAddress",
          "type": "address"
        },
        {
          "indexed": false,
          "internalType": "uint256",
          "name": "amount",
          "type": "uint256"
        },
        {
          "indexed": false,
          "internalType": "uint256",
          "name": "option",
          "type": "uint256"
        }
      ],
      "name": "rewardClaimed",
      "type": "event"
    },
    {
      "anonymous": false,
      "inputs": [
        {
          "indexed": false,
          "internalType": "address",
          "name": "userAddress",
          "type": "address"
        },
        {
          "indexed": false,
          "internalType": "uint256",
          "name": "amount",
          "type": "uint256"
        },
        {
          "indexed": false,
          "internalType": "uint256",
          "name": "option",
          "type": "uint256"
        },
        {
          "indexed": false,
          "internalType": "uint256",
          "name": "time",
          "type": "uint256"
        }
      ],
      "name": "tokenStaked",
      "type": "event"
    },
    {
      "anonymous": false,
      "inputs": [
        {
          "indexed": false,
          "internalType": "address",
          "name": "userAddress",
          "type": "address"
        },
        {
          "indexed": false,
          "internalType": "uint256",
          "name": "amount",
          "type": "uint256"
        },
        {
          "indexed": false,
          "internalType": "uint256",
          "name": "option",
          "type": "uint256"
        }
      ],
      "name": "tokenWithdraw",
      "type": "event"
    },
    {
      "inputs": [],
      "name": "Token",
      "outputs": [
        {
          "internalType": "contract ERC20",
          "name": "",
          "type": "address"
        }
      ],
      "stateMutability": "view",
      "type": "function",
      "constant": true
    },
    {
      "inputs": [],
      "name": "owner",
      "outputs": [
        {
          "internalType": "address",
          "name": "",
          "type": "address"
        }
      ],
      "stateMutability": "view",
      "type": "function",
      "constant": true
    },
    {
      "inputs": [],
      "name": "renounceOwnership",
      "outputs": [],
      "stateMutability": "nonpayable",
      "type": "function"
    },
    {
      "inputs": [
        {
          "internalType": "address",
          "name": "newOwner",
          "type": "address"
        }
      ],
      "name": "transferOwnership",
      "outputs": [],
      "stateMutability": "nonpayable",
      "type": "function"
    },
    {
      "inputs": [
        {
          "internalType": "uint256",
          "name": "_percentage",
          "type": "uint256"
        }
      ],
      "name": "set_percentage1",
      "outputs": [],
      "stateMutability": "nonpayable",
      "type": "function"
    },
    {
      "inputs": [
        {
          "internalType": "uint256",
          "name": "_percentage",
          "type": "uint256"
        }
      ],
      "name": "set_percentage2",
      "outputs": [],
      "stateMutability": "nonpayable",
      "type": "function"
    },
    {
      "inputs": [
        {
          "internalType": "uint256",
          "name": "_amountToken",
          "type": "uint256"
        },
        {
          "internalType": "address",
          "name": "_token",
          "type": "address"
        },
        {
          "internalType": "uint256",
          "name": "_option",
          "type": "uint256"
        }
      ],
      "name": "stake",
      "outputs": [],
      "stateMutability": "nonpayable",
      "type": "function"
    },
    {
      "inputs": [
        {
          "internalType": "address",
          "name": "_address",
          "type": "address"
        },
        {
          "internalType": "address",
          "name": "_token",
          "type": "address"
        },
        {
          "internalType": "uint256",
          "name": "_option",
          "type": "uint256"
        }
      ],
      "name": "getCurrentStake",
      "outputs": [
        {
          "components": [
            {
              "internalType": "uint256",
              "name": "amount",
              "type": "uint256"
            },
            {
              "internalType": "uint256",
              "name": "time",
              "type": "uint256"
            },
            {
              "internalType": "bool",
              "name": "exist",
              "type": "bool"
            },
            {
              "internalType": "bool",
              "name": "toClaim",
              "type": "bool"
            }
          ],
          "internalType": "struct Staking.Stake",
          "name": "",
          "type": "tuple"
        }
      ],
      "stateMutability": "view",
      "type": "function",
      "constant": true
    },
    {
      "inputs": [
        {
          "internalType": "address",
          "name": "_token",
          "type": "address"
        },
        {
          "internalType": "uint256",
          "name": "_option",
          "type": "uint256"
        }
      ],
      "name": "withdrawTokens",
      "outputs": [],
      "stateMutability": "nonpayable",
      "type": "function"
    },
    {
      "inputs": [
        {
          "internalType": "uint256",
          "name": "_option",
          "type": "uint256"
        },
        {
          "internalType": "address",
          "name": "_token",
          "type": "address"
        }
      ],
      "name": "claimRewards",
      "outputs": [],
      "stateMutability": "nonpayable",
      "type": "function"
    },
    {
      "inputs": [
        {
          "internalType": "address",
          "name": "tokenAddress",
          "type": "address"
        }
      ],
      "name": "getTokenPrice",
      "outputs": [
        {
          "internalType": "int256",
          "name": "",
          "type": "int256"
        }
      ],
      "stateMutability": "view",
      "type": "function",
      "constant": true
    }
  ],
  "bytecode": "0x60806040526040516200001290620001e9565b604051809103906000f0801580156200002f573d6000803e3d6000fd5b50600560006101000a81548173ffffffffffffffffffffffffffffffffffffffff021916908373ffffffffffffffffffffffffffffffffffffffff1602179055506016600655603260075563b964f0006008553480156200008f57600080fd5b5060405162002867380380620028678339818101604052810190620000b5919062000275565b620000d5620000c96200011d60201b60201c565b6200012560201b60201c565b80600460006101000a81548173ffffffffffffffffffffffffffffffffffffffff021916908373ffffffffffffffffffffffffffffffffffffffff16021790555050620002a7565b600033905090565b60008060009054906101000a900473ffffffffffffffffffffffffffffffffffffffff169050816000806101000a81548173ffffffffffffffffffffffffffffffffffffffff021916908373ffffffffffffffffffffffffffffffffffffffff1602179055508173ffffffffffffffffffffffffffffffffffffffff168173ffffffffffffffffffffffffffffffffffffffff167f8be0079c531659141344cd1fd0a4f28419497f9722a3daafe3b4186f6b6457e060405160405180910390a35050565b61032e806200253983390190565b600080fd5b600073ffffffffffffffffffffffffffffffffffffffff82169050919050565b60006200022982620001fc565b9050919050565b60006200023d826200021c565b9050919050565b6200024f8162000230565b81146200025b57600080fd5b50565b6000815190506200026f8162000244565b92915050565b6000602082840312156200028e576200028d620001f7565b5b60006200029e848285016200025e565b91505092915050565b61228280620002b76000396000f3fe608060405234801561001057600080fd5b50600436106100a95760003560e01c80638da5cb5b116100715780638da5cb5b1461012857806391169d5a14610146578063b7ca941814610176578063c241267614610192578063d02641a0146101b0578063f2fde38b146101e0576100a9565b806306b091f9146100ae578063389b9ff5146100ca5780636c7b69cb146100e65780636e9c931c14610102578063715018a61461011e575b600080fd5b6100c860048036038101906100c391906117e9565b6101fc565b005b6100e460048036038101906100df9190611829565b61097b565b005b61010060048036038101906100fb9190611856565b61098d565b005b61011c60048036038101906101179190611896565b610f9f565b005b610126611341565b005b610130611355565b60405161013d91906118f8565b60405180910390f35b610160600480360381019061015b9190611913565b61137e565b60405161016d91906119e5565b60405180910390f35b610190600480360381019061018b9190611829565b611471565b005b61019a611483565b6040516101a79190611a5f565b60405180910390f35b6101ca60048036038101906101c59190611a7a565b6114a9565b6040516101d79190611ac0565b60405180910390f35b6101fa60048036038101906101f59190611a7a565b611557565b005b600033905060001515600160008373ffffffffffffffffffffffffffffffffffffffff1673ffffffffffffffffffffffffffffffffffffffff168152602001908152602001600020600084815260200190815260200160002060008573ffffffffffffffffffffffffffffffffffffffff1673ffffffffffffffffffffffffffffffffffffffff16815260200190815260200160002060020160019054906101000a900460ff161515146102af57600080fd5b6000429050600060011515600160008573ffffffffffffffffffffffffffffffffffffffff1673ffffffffffffffffffffffffffffffffffffffff168152602001908152602001600020600086815260200190815260200160002060008773ffffffffffffffffffffffffffffffffffffffff1673ffffffffffffffffffffffffffffffffffffffff16815260200190815260200160002060020160009054906101000a900460ff1615151461039a576040517f08c379a000000000000000000000000000000000000000000000000000000000815260040161039190611b38565b60405180910390fd5b600284036104815781600f600160008673ffffffffffffffffffffffffffffffffffffffff1673ffffffffffffffffffffffffffffffffffffffff168152602001908152602001600020600087815260200190815260200160002060008873ffffffffffffffffffffffffffffffffffffffff1673ffffffffffffffffffffffffffffffffffffffff168152602001908152602001600020600101546104409190611b87565b10610480576040517f08c379a000000000000000000000000000000000000000000000000000000000815260040161047790611c29565b60405180910390fd5b5b60018403610576578162278d00600361049a9190611c49565b600160008673ffffffffffffffffffffffffffffffffffffffff1673ffffffffffffffffffffffffffffffffffffffff168152602001908152602001600020600087815260200190815260200160002060008873ffffffffffffffffffffffffffffffffffffffff1673ffffffffffffffffffffffffffffffffffffffff168152602001908152602001600020600101546105359190611b87565b10610575576040517f08c379a000000000000000000000000000000000000000000000000000000000815260040161056c90611cef565b60405180910390fd5b5b6000840361065f578162015180600160008673ffffffffffffffffffffffffffffffffffffffff1673ffffffffffffffffffffffffffffffffffffffff168152602001908152602001600020600087815260200190815260200160002060008873ffffffffffffffffffffffffffffffffffffffff1673ffffffffffffffffffffffffffffffffffffffff1681526020019081526020016000206001015461061e9190611b87565b1061065e576040517f08c379a000000000000000000000000000000000000000000000000000000000815260040161065590611d5b565b60405180910390fd5b5b600160008473ffffffffffffffffffffffffffffffffffffffff1673ffffffffffffffffffffffffffffffffffffffff168152602001908152602001600020600085815260200190815260200160002060008673ffffffffffffffffffffffffffffffffffffffff1673ffffffffffffffffffffffffffffffffffffffff168152602001908152602001600020600001549050600160008473ffffffffffffffffffffffffffffffffffffffff1673ffffffffffffffffffffffffffffffffffffffff168152602001908152602001600020600085815260200190815260200160002060008673ffffffffffffffffffffffffffffffffffffffff1673ffffffffffffffffffffffffffffffffffffffff16815260200190815260200160002060000160009055600160008473ffffffffffffffffffffffffffffffffffffffff1673ffffffffffffffffffffffffffffffffffffffff168152602001908152602001600020600085815260200190815260200160002060008673ffffffffffffffffffffffffffffffffffffffff1673ffffffffffffffffffffffffffffffffffffffff16815260200190815260200160002060020160006101000a81549060ff0219169055600160008473ffffffffffffffffffffffffffffffffffffffff1673ffffffffffffffffffffffffffffffffffffffff168152602001908152602001600020600085815260200190815260200160002060008673ffffffffffffffffffffffffffffffffffffffff1673ffffffffffffffffffffffffffffffffffffffff168152602001908152602001600020600101600090558473ffffffffffffffffffffffffffffffffffffffff1663a9059cbb33836040518363ffffffff1660e01b81526004016108f5929190611d8a565b6020604051808303816000875af1158015610914573d6000803e3d6000fd5b505050506040513d601f19601f820116820180604052508101906109389190611ddf565b507fd4b3f5b670235b7d170ce636ea57497c198d596133506bdca3f32aa15a8d85b483828660405161096c93929190611e0c565b60405180910390a15050505050565b6109836115da565b8060068190555050565b600033905060004290506000806000600160008673ffffffffffffffffffffffffffffffffffffffff1673ffffffffffffffffffffffffffffffffffffffff168152602001908152602001600020600088815260200190815260200160002060008773ffffffffffffffffffffffffffffffffffffffff1673ffffffffffffffffffffffffffffffffffffffff16815260200190815260200160002060020160019054906101000a900460ff16610a79576040517f08c379a0000000000000000000000000000000000000000000000000000000008152600401610a7090611e8f565b60405180910390fd5b60028703610b645783600f600160008873ffffffffffffffffffffffffffffffffffffffff1673ffffffffffffffffffffffffffffffffffffffff16815260200190815260200160002060008a815260200190815260200160002060008973ffffffffffffffffffffffffffffffffffffffff1673ffffffffffffffffffffffffffffffffffffffff16815260200190815260200160002060010154610b1f9190611b87565b10610b5f576040517f08c379a0000000000000000000000000000000000000000000000000000000008152600401610b5690611c29565b60405180910390fd5b600f91505b60018703610c6b578362278d006003610b7d9190611c49565b600160008873ffffffffffffffffffffffffffffffffffffffff1673ffffffffffffffffffffffffffffffffffffffff16815260200190815260200160002060008a815260200190815260200160002060008973ffffffffffffffffffffffffffffffffffffffff1673ffffffffffffffffffffffffffffffffffffffff16815260200190815260200160002060010154610c189190611b87565b10610c58576040517f08c379a0000000000000000000000000000000000000000000000000000000008152600401610c4f90611cef565b60405180910390fd5b62278d006003610c689190611c49565b91505b60008703610d5a578362015180600160008873ffffffffffffffffffffffffffffffffffffffff1673ffffffffffffffffffffffffffffffffffffffff16815260200190815260200160002060008a815260200190815260200160002060008973ffffffffffffffffffffffffffffffffffffffff1673ffffffffffffffffffffffffffffffffffffffff16815260200190815260200160002060010154610d139190611b87565b10610d53576040517f08c379a0000000000000000000000000000000000000000000000000000000008152600401610d4a90611d5b565b60405180910390fd5b6201518091505b6301da9c00606460085484610d6f9190611c49565b610d799190611ede565b610d839190611ede565b905080600160008773ffffffffffffffffffffffffffffffffffffffff1673ffffffffffffffffffffffffffffffffffffffff168152602001908152602001600020600089815260200190815260200160002060008873ffffffffffffffffffffffffffffffffffffffff1673ffffffffffffffffffffffffffffffffffffffff16815260200190815260200160002060000154610e219190611c49565b92506000600160008773ffffffffffffffffffffffffffffffffffffffff1673ffffffffffffffffffffffffffffffffffffffff168152602001908152602001600020600089815260200190815260200160002060008873ffffffffffffffffffffffffffffffffffffffff1673ffffffffffffffffffffffffffffffffffffffff16815260200190815260200160002060020160016101000a81548160ff021916908315150217905550600460009054906101000a900473ffffffffffffffffffffffffffffffffffffffff1673ffffffffffffffffffffffffffffffffffffffff166340c10f1986856040518363ffffffff1660e01b8152600401610f29929190611d8a565b600060405180830381600087803b158015610f4357600080fd5b505af1158015610f57573d6000803e3d6000fd5b505050507f1284bc0a7616f127f3f049bad1bb6af81121fa6cb9ac68ff5d5d7edf854a1b98858489604051610f8e93929190611e0c565b60405180910390a150505050505050565b600033905082600360006101000a81548173ffffffffffffffffffffffffffffffffffffffff021916908373ffffffffffffffffffffffffffffffffffffffff160217905550600360009054906101000a900473ffffffffffffffffffffffffffffffffffffffff1673ffffffffffffffffffffffffffffffffffffffff166323b872dd3330876040518463ffffffff1660e01b815260040161104493929190611f0f565b6020604051808303816000875af1158015611063573d6000803e3d6000fd5b505050506040513d601f19601f820116820180604052508101906110879190611ddf565b5060001515600160008373ffffffffffffffffffffffffffffffffffffffff1673ffffffffffffffffffffffffffffffffffffffff168152602001908152602001600020600084815260200190815260200160002060008573ffffffffffffffffffffffffffffffffffffffff1673ffffffffffffffffffffffffffffffffffffffff16815260200190815260200160002060020160009054906101000a900460ff1615151461116c576040517f08c379a000000000000000000000000000000000000000000000000000000000815260040161116390611fb8565b60405180910390fd5b600084116111af576040517f08c379a00000000000000000000000000000000000000000000000000000000081526004016111a690612024565b60405180910390fd5b60038211156111f3576040517f08c379a00000000000000000000000000000000000000000000000000000000081526004016111ea90612090565b60405180910390fd5b604051806080016040528085815260200142815260200160011515815260200160011515815250600160008373ffffffffffffffffffffffffffffffffffffffff1673ffffffffffffffffffffffffffffffffffffffff168152602001908152602001600020600084815260200190815260200160002060008573ffffffffffffffffffffffffffffffffffffffff1673ffffffffffffffffffffffffffffffffffffffff168152602001908152602001600020600082015181600001556020820151816001015560408201518160020160006101000a81548160ff02191690831515021790555060608201518160020160016101000a81548160ff0219169083151502179055509050507fd164d09959e7d23fef29cd763b6e815415463d3612b16c3eb4ffe7e77a2e36623385844260405161133394939291906120b0565b60405180910390a150505050565b6113496115da565b6113536000611658565b565b60008060009054906101000a900473ffffffffffffffffffffffffffffffffffffffff16905090565b611386611724565b600160008573ffffffffffffffffffffffffffffffffffffffff1673ffffffffffffffffffffffffffffffffffffffff168152602001908152602001600020600083815260200190815260200160002060008473ffffffffffffffffffffffffffffffffffffffff1673ffffffffffffffffffffffffffffffffffffffff16815260200190815260200160002060405180608001604052908160008201548152602001600182015481526020016002820160009054906101000a900460ff161515151581526020016002820160019054906101000a900460ff16151515158152505090509392505050565b6114796115da565b8060078190555050565b600360009054906101000a900473ffffffffffffffffffffffffffffffffffffffff1681565b6000600560009054906101000a900473ffffffffffffffffffffffffffffffffffffffff1673ffffffffffffffffffffffffffffffffffffffff166316345f18836040518263ffffffff1660e01b815260040161150691906118f8565b602060405180830381865afa92505050801561154057506040513d601f19601f8201168201806040525081019061153d9190612121565b60015b61154d5760009050611552565b809150505b919050565b61155f6115da565b600073ffffffffffffffffffffffffffffffffffffffff168173ffffffffffffffffffffffffffffffffffffffff16036115ce576040517f08c379a00000000000000000000000000000000000000000000000000000000081526004016115c5906121c0565b60405180910390fd5b6115d781611658565b50565b6115e261171c565b73ffffffffffffffffffffffffffffffffffffffff16611600611355565b73ffffffffffffffffffffffffffffffffffffffff1614611656576040517f08c379a000000000000000000000000000000000000000000000000000000000815260040161164d9061222c565b60405180910390fd5b565b60008060009054906101000a900473ffffffffffffffffffffffffffffffffffffffff169050816000806101000a81548173ffffffffffffffffffffffffffffffffffffffff021916908373ffffffffffffffffffffffffffffffffffffffff1602179055508173ffffffffffffffffffffffffffffffffffffffff168173ffffffffffffffffffffffffffffffffffffffff167f8be0079c531659141344cd1fd0a4f28419497f9722a3daafe3b4186f6b6457e060405160405180910390a35050565b600033905090565b604051806080016040528060008152602001600081526020016000151581526020016000151581525090565b600080fd5b600073ffffffffffffffffffffffffffffffffffffffff82169050919050565b600061178082611755565b9050919050565b61179081611775565b811461179b57600080fd5b50565b6000813590506117ad81611787565b92915050565b6000819050919050565b6117c6816117b3565b81146117d157600080fd5b50565b6000813590506117e3816117bd565b92915050565b60008060408385031215611800576117ff611750565b5b600061180e8582860161179e565b925050602061181f858286016117d4565b9150509250929050565b60006020828403121561183f5761183e611750565b5b600061184d848285016117d4565b91505092915050565b6000806040838503121561186d5761186c611750565b5b600061187b858286016117d4565b925050602061188c8582860161179e565b9150509250929050565b6000806000606084860312156118af576118ae611750565b5b60006118bd868287016117d4565b93505060206118ce8682870161179e565b92505060406118df868287016117d4565b9150509250925092565b6118f281611775565b82525050565b600060208201905061190d60008301846118e9565b92915050565b60008060006060848603121561192c5761192b611750565b5b600061193a8682870161179e565b935050602061194b8682870161179e565b925050604061195c868287016117d4565b9150509250925092565b61196f816117b3565b82525050565b60008115159050919050565b61198a81611975565b82525050565b6080820160008201516119a66000850182611966565b5060208201516119b96020850182611966565b5060408201516119cc6040850182611981565b5060608201516119df6060850182611981565b50505050565b60006080820190506119fa6000830184611990565b92915050565b6000819050919050565b6000611a25611a20611a1b84611755565b611a00565b611755565b9050919050565b6000611a3782611a0a565b9050919050565b6000611a4982611a2c565b9050919050565b611a5981611a3e565b82525050565b6000602082019050611a746000830184611a50565b92915050565b600060208284031215611a9057611a8f611750565b5b6000611a9e8482850161179e565b91505092915050565b6000819050919050565b611aba81611aa7565b82525050565b6000602082019050611ad56000830184611ab1565b92915050565b600082825260208201905092915050565b7f596f7520646f6e27742068617665207468697320746f6b656e207374616b6564600082015250565b6000611b22602083611adb565b9150611b2d82611aec565b602082019050919050565b60006020820190508181036000830152611b5181611b15565b9050919050565b7f4e487b7100000000000000000000000000000000000000000000000000000000600052601160045260246000fd5b6000611b92826117b3565b9150611b9d836117b3565b9250827fffffffffffffffffffffffffffffffffffffffffffffffffffffffffffffffff03821115611bd257611bd1611b58565b5b828201905092915050565b7f3135207365636f6e6473206e6f74207061737365640000000000000000000000600082015250565b6000611c13601583611adb565b9150611c1e82611bdd565b602082019050919050565b60006020820190508181036000830152611c4281611c06565b9050919050565b6000611c54826117b3565b9150611c5f836117b3565b9250817fffffffffffffffffffffffffffffffffffffffffffffffffffffffffffffffff0483118215151615611c9857611c97611b58565b5b828202905092915050565b7f33206d6f756e746873206e6f7420706173736564000000000000000000000000600082015250565b6000611cd9601483611adb565b9150611ce482611ca3565b602082019050919050565b60006020820190508181036000830152611d0881611ccc565b9050919050565b7f646179206e6f7420706173736564000000000000000000000000000000000000600082015250565b6000611d45600e83611adb565b9150611d5082611d0f565b602082019050919050565b60006020820190508181036000830152611d7481611d38565b9050919050565b611d84816117b3565b82525050565b6000604082019050611d9f60008301856118e9565b611dac6020830184611d7b565b9392505050565b611dbc81611975565b8114611dc757600080fd5b50565b600081519050611dd981611db3565b92915050565b600060208284031215611df557611df4611750565b5b6000611e0384828501611dca565b91505092915050565b6000606082019050611e2160008301866118e9565b611e2e6020830185611d7b565b611e3b6040830184611d7b565b949350505050565b7f596f7520646f6e27742068617665207374616b65207468697320746f6b656e00600082015250565b6000611e79601f83611adb565b9150611e8482611e43565b602082019050919050565b60006020820190508181036000830152611ea881611e6c565b9050919050565b7f4e487b7100000000000000000000000000000000000000000000000000000000600052601260045260246000fd5b6000611ee9826117b3565b9150611ef4836117b3565b925082611f0457611f03611eaf565b5b828204905092915050565b6000606082019050611f2460008301866118e9565b611f3160208301856118e9565b611f3e6040830184611d7b565b949350505050565b7f596f75206861766520616c7265616479207374616b6520616e64206c6f636b2060008201527f7468697320746f6b656e00000000000000000000000000000000000000000000602082015250565b6000611fa2602a83611adb565b9150611fad82611f46565b604082019050919050565b60006020820190508181036000830152611fd181611f95565b9050919050565b7f416d6f756e742068617320746f206265203e20746f2030000000000000000000600082015250565b600061200e601783611adb565b915061201982611fd8565b602082019050919050565b6000602082019050818103600083015261203d81612001565b9050919050565b7f73686f756c6420626520302c2031206f72203200000000000000000000000000600082015250565b600061207a601383611adb565b915061208582612044565b602082019050919050565b600060208201905081810360008301526120a98161206d565b9050919050565b60006080820190506120c560008301876118e9565b6120d26020830186611d7b565b6120df6040830185611d7b565b6120ec6060830184611d7b565b95945050505050565b6120fe81611aa7565b811461210957600080fd5b50565b60008151905061211b816120f5565b92915050565b60006020828403121561213757612136611750565b5b60006121458482850161210c565b91505092915050565b7f4f776e61626c653a206e6577206f776e657220697320746865207a65726f206160008201527f6464726573730000000000000000000000000000000000000000000000000000602082015250565b60006121aa602683611adb565b91506121b58261214e565b604082019050919050565b600060208201905081810360008301526121d98161219d565b9050919050565b7f4f776e61626c653a2063616c6c6572206973206e6f7420746865206f776e6572600082015250565b6000612216602083611adb565b9150612221826121e0565b602082019050919050565b6000602082019050818103600083015261224581612209565b905091905056fea26469706673582212206e22ee844dbd509cbfd5530fbb8e85a460f6e6761555c300636dbe8ebed78a1d64736f6c634300080e0033608060405234801561001057600080fd5b5061030e806100206000396000f3fe608060405234801561001057600080fd5b506004361061002b5760003560e01c806316345f1814610030575b600080fd5b61004a60048036038101906100459190610158565b610060565b604051610057919061019e565b60405180910390f35b60008082905060008060008060008573ffffffffffffffffffffffffffffffffffffffff1663feaf968c6040518163ffffffff1660e01b815260040160a060405180830381865afa1580156100b9573d6000803e3d6000fd5b505050506040513d601f19601f820116820180604052508101906100dd919061025d565b94509450945094509450839650505050505050919050565b600080fd5b600073ffffffffffffffffffffffffffffffffffffffff82169050919050565b6000610125826100fa565b9050919050565b6101358161011a565b811461014057600080fd5b50565b6000813590506101528161012c565b92915050565b60006020828403121561016e5761016d6100f5565b5b600061017c84828501610143565b91505092915050565b6000819050919050565b61019881610185565b82525050565b60006020820190506101b3600083018461018f565b92915050565b600069ffffffffffffffffffff82169050919050565b6101d8816101b9565b81146101e357600080fd5b50565b6000815190506101f5816101cf565b92915050565b61020481610185565b811461020f57600080fd5b50565b600081519050610221816101fb565b92915050565b6000819050919050565b61023a81610227565b811461024557600080fd5b50565b60008151905061025781610231565b92915050565b600080600080600060a08688031215610279576102786100f5565b5b6000610287888289016101e6565b955050602061029888828901610212565b94505060406102a988828901610248565b93505060606102ba88828901610248565b92505060806102cb888289016101e6565b915050929550929590935056fea26469706673582212203ce6d431d2b31fae28b29f40f66cfbc3de9aa71bc4fc4c66fd709e27cd856b2464736f6c634300080e0033",
  "immutableReferences": {},
  "source": "// SPDX-License-Identifier: MIT\r\n\r\npragma solidity ^0.8.4;\r\n\r\nimport \"@openzeppelin/contracts/token/ERC20/ERC20.sol\";\r\nimport \"@openzeppelin/contracts/token/ERC20/IERC20.sol\";\r\nimport \"@openzeppelin/contracts/access/Ownable.sol\";\r\n\r\nimport \"./AlyraToken.sol\";\r\nimport \"./PriceConsumer.sol\";\r\n\r\ncontract Staking is Ownable  {       \r\n    \r\n  struct Stake {\r\n      uint256 amount;\r\n      uint256 time; \r\n      bool exist;\r\n      bool toClaim;\r\n  }\r\n    \r\n  uint256 constant FACTOR = 1e6;\r\n  uint256 constant DAY = 86400;\r\n  uint256 constant MOUNTH = 2592000;\r\n\r\n  mapping(address => mapping(uint => mapping(address => Stake))) userStake;\r\n  mapping(address => mapping(address=>uint)) usersReward;\r\n\r\n  ERC20 public Token;\r\n  AlyraToken AYA;\r\n  PriceConsumer private priceConsumer = new PriceConsumer();\r\n\r\n  uint256 percentage1=22;\r\n  uint256 percentage2=50;\r\n  uint256 percentage3=3110400000;\r\n\r\n  event tokenStaked(address userAddress, uint256 amount, uint256 option, uint256 time);\r\n  event rewardClaimed(address userAddress, uint256 amount, uint256 option);\r\n  event tokenWithdraw(address userAddress, uint256 amount, uint256 option);\r\n\r\n\r\n  constructor(AlyraToken _aya){\r\n    AYA = _aya ;\r\n  }\r\n\r\n  function set_percentage1(uint256 _percentage) external onlyOwner{\r\n        percentage1 = _percentage;      \r\n  }\r\n\r\n  function set_percentage2(uint256 _percentage) external onlyOwner{\r\n        percentage2 = _percentage;      \r\n  }\r\n\r\n  function stake(uint256 _amountToken, address _token, uint256 _option ) external {\r\n\r\n    address user = msg.sender;\r\n    Token = ERC20(_token); \r\n    Token.transferFrom(msg.sender, address(this), _amountToken);\r\n\r\n    require(userStake[user][_option][_token].exist == false, \"You have already stake and lock this token\");\r\n    require (_amountToken > 0, \"Amount has to be > to 0\");\r\n    require (_option <= 3, \"should be 0, 1 or 2\");\r\n\r\n\r\n    userStake[user][_option][_token]=Stake(_amountToken, block.timestamp, true, true);\r\n\r\n    emit tokenStaked(msg.sender, _amountToken, _option, block.timestamp);\r\n\r\n  }\r\n\r\n  function getCurrentStake(address _address, address _token, uint _option) external view returns (Stake memory) {\r\n    return userStake[_address][_option][_token];\r\n  }\r\n\r\n  function withdrawTokens(address _token, uint _option) public {\r\n    \r\n    address user = msg.sender;\r\n    \r\n    require(userStake[user][_option][_token].toClaim == false);\r\n    \r\n    uint256 _time = block.timestamp;\r\n    uint amountToWithdraw;\r\n\r\n    require(userStake[user][_option][_token].exist == true, \"You don't have this token staked\");\r\n    \r\n    if(_option == 2){\r\n\r\n      require(userStake[user][_option][_token].time+15 < _time,\"15 seconds not passed\");\r\n\r\n    }\r\n\r\n    if(_option == 1){\r\n\r\n      require(userStake[user][_option][_token].time+(3*MOUNTH) < _time,\"3 mounths not passed\");\r\n\r\n    }\r\n\r\n    if(_option == 0){\r\n\r\n      require(userStake[user][_option][_token].time+DAY < _time,\"day not passed\");\r\n\r\n    }\r\n\r\n    amountToWithdraw = userStake[user][_option][_token].amount;\r\n    \r\n    delete userStake[user][_option][_token].amount;\r\n    delete userStake[user][_option][_token].exist;\r\n    delete userStake[user][_option][_token].time;\r\n\r\n    IERC20(_token).transfer(msg.sender, amountToWithdraw);\r\n\r\n    emit tokenWithdraw(user, amountToWithdraw, _option);\r\n\r\n  }\r\n\r\n  function claimRewards(uint _option, address _token) public {\r\n\r\n    address _user = msg.sender;\r\n    uint256 _time = block.timestamp;\r\n    uint256 _reward;\r\n    uint256 _stakedTime;\r\n    uint256 rateStaked;\r\n    \r\n    require(userStake[_user][_option][_token].toClaim, \"You don't have stake this token\");\r\n\r\n    if(_option == 2) {\r\n      require(userStake[_user][_option][_token].time+15 < _time,\"15 seconds not passed\");\r\n\r\n      _stakedTime = 15;\r\n    }\r\n\r\n    if(_option == 1) {\r\n      require(userStake[_user][_option][_token].time+(3*MOUNTH)<_time,\"3 mounths not passed\");\r\n\r\n      _stakedTime = 3*MOUNTH;\r\n    }\r\n\r\n    if(_option == 0){\r\n      require(userStake[_user][_option][_token].time+DAY<_time,\"day not passed\");\r\n\r\n      _stakedTime = DAY;\r\n    }\r\n\r\n    rateStaked = (_stakedTime*percentage3/100)/(360*24*60*60);\r\n    _reward = userStake[_user][_option][_token].amount*rateStaked;\r\n    userStake[_user][_option][_token].toClaim = false;\r\n          \r\n    AYA.mint(_user, _reward);\r\n\r\n    emit rewardClaimed(_user, _reward, _option);\r\n\r\n  }\r\n\r\n  function getTokenPrice(address tokenAddress) public view returns (int256) {\r\n      try priceConsumer.getLatestPrice(tokenAddress) returns (\r\n          int256 price\r\n      ) {\r\n          return price;\r\n      } catch {\r\n          return 0;\r\n      }\r\n  }\r\n\r\n\r\n}\r\n",
  "sourcePath": "/home/code/alyra/exos/project4_staking/truffle/contracts/staking.sol",
  "compiler": {
    "name": "solc",
    "version": "0.8.14+commit.80d49f37.Emscripten.clang"
  },
  "schemaVersion": "3.4.7",
  "updatedAt": "2022-08-07T14:22:29.985Z",
  "networkType": "ethereum",
  "devdoc": {
    "kind": "dev",
    "methods": {
      "owner()": {
        "details": "Returns the address of the current owner."
      },
      "renounceOwnership()": {
        "details": "Leaves the contract without owner. It will not be possible to call `onlyOwner` functions anymore. Can only be called by the current owner. NOTE: Renouncing ownership will leave the contract without an owner, thereby removing any functionality that is only available to the owner."
      },
      "transferOwnership(address)": {
        "details": "Transfers ownership of the contract to a new account (`newOwner`). Can only be called by the current owner."
      }
    },
    "version": 1
  },
  "userdoc": {
    "kind": "user",
    "methods": {},
    "version": 1
  }
}